:100000000C943E000C9400000C9400000C94000032
:100010000C9400000C9400000C9400000C94000060
:100020000C9400000C9400000C9400000C94000050
:100030000C9400000C9400000C9400000C94000040
:100040000C9400000C9400000C9400000C94000030
:100050000C94000057617368696E672E2E2E004461
:100060006F6E6521000080C00B0060025400060026
:100070006B025F000200710266000000F894EE2738
:10008000ECBBF1E0FBBFEBBFE5BF8DE0A2E0BB271F
:10009000ED938A95E9F780E098E0A0E6ED9301976B
:1000A000E9F7E8E6F0E085919591009761F0A59178
:1000B000B59105901590BF01F00105900D92019743
:1000C000E1F7FB01F0CFEFE5EDBFE8E0EEBFC0E602
:1000D000D2E00C949100EFEFE4BBE1BBE0E0E7BBC2
:1000E000EFEFE8BB0895909AA0EDB7E00E943E01C3
:1000F00090980895919A949AA8E8B3E10E943E01DD
:10010000919894980895929AA8EBBBE00E943E01C2
:1001100092980895939AA0EABFE00E943E019398B6
:100120000895D9DFA0E173D042D0B09911C03FD07B
:10013000A0E6B2E05BD0D7DFDDDFE5DFEBDF37D075
:10014000ABE6B2E053D0A0EDB7E00E943E012FD065
:10015000ECCFFFCFAA93E5B3EF70AE2FE881E07F3D
:10016000EA2BE5BB8DE08A95F1F7AA9A8DE08A9596
:10017000F1F7AA988DE08A95F1F772C0AA93A88149
:10018000E9DFE881E295E883A881E4DF85E88A95E4
:10019000F1F766C0AA93E881F0E0EF58FD4FE081E7
:1001A000A981AE0FEBDF5980488022960895A2E026
:1001B00059D0ACE0E3DFA1E055D0E0E04E2E5E2E5A
:1001C0000895AA93A881AA3011F0571448F0E0E0EE
:1001D000EA934394A42DDEDFA881AA3009F440C03D
:1001E0005394A89AA881CADFA8983AC0BA93AA9350
:1001F0001A93A981BA81ED91A983BA831E2FE030A9
:1002000019F0A12FDEDFF5CF188123960895AA9368
:10021000E4B3E06FE4BBA29AA09AA19AAA98A89826
:10022000A9987880E881E058E0937302E881E0546F
:10023000E0937402A4E1B0E00E943E0118D017D010
:1002400016D0A0E287DF88EC90E00197F1F7A8E2F2
:1002500095DFA4E093DFA5E891DFA6E08FDFA7DFBD
:10026000219608958BDFA3E0B0E00C943E01A0E35B
:1002700071DF88EC90E00197F1F70895109639F05E
:1002800080ED97E00197F1F7A8951197C9F70895C8
:00000001FF
